:020000041000EA
:1000000000B5324B212058609868022188439860DF
:10001000D860186158612E4B002199600221596106
:100020000121F02299502B49196001219960352056
:1000300000F044F80222904214D00621196600F024
:1000400034F8196E01211966002018661A6600F04E
:100050002CF8196E196E196E052000F02FF8012189
:100060000842F9D1002199601B49196000215960AB
:100070001A491B48016001219960EB211966A021F2
:10008000196600F012F800219960164914480160C1
:100090000121996001BC002800D000471248134993
:1000A000086003C880F30888084703B5996A0420EC
:1000B0000142FBD001200142F8D103BD02B5186610
:1000C0001866FFF7F2FF186E186E02BD00000240BE
:1000D000000000180000070000035F00212200005C
:1000E000F4000018222000A00001001008ED00E03C
:1000F00000000000000000000000000074B24E7A12
:1001000000200420F7010010C3010010C5010010F9
:10011000C1010010C1010010C1010010C101001097
:10012000C1010010C1010010C1010010C701001081
:10013000C1010010C1010010C9010010CB01001065
:10014000CD010010CD010010CD010010CD01001037
:10015000CD010010CD010010CD010010CD01001027
:10016000CD010010CD010010CD010010CD01001017
:10017000CD010010CD010010CD010010CD01001007
:10018000CD010010CD010010CD010010CD010010F7
:10019000CD010010CD010010CD010010CD010010E7
:1001A000CD010010CD010010CD010010CD010010D7
:1001B000CD010010CD010010CD010010CD010010C7
:1001C00000BE00BE00BE00BE00BE00BEEFF3058054
:1001D000103800BEF2EB88710824001028240010AB
:1001E0003802001090A31AE71E481F49086006C88D
:1001F00081F3088810471D480068002801D019487D
:10020000F3E70DA40ECC002902D000F012F8F9E7B4
:100210001749184A002000E001C19142FCD116495B
:100220008847164988471649884700BEFDE701C937
:1002300001C29A42FBD3704728240010C00000205E
:10024000E8010020502500100000042000000420D8
:1002500050250010001004200010042000000000B1
:10026000704700000000000008ED00E0000000D032
:10027000E801002030060020991B001081070010C3
:10028000911B0010F8B5C04606480749091A8B10A3
:10029000C90FC91810B5491003D0044B002B00D06A
:1002A000984710BDE8010020E80100200000000090
:1002B000054B10B5002B03D00449054800E000BFF2
:1002C000FFF7E2FF10BDC04600000000F804002068
:1002D000A0210010F0B5C6461C0000B5304B0E0042
:1002E000C118090D063186B00500C9B220001700FB
:1002F00000F026FB0123310022000093280001F0CA
:100300003DFE80235B020293FB1CFA011B03134397
:10031000244AA40213400393F823DB011C408023EA
:100320009B0523430593204B0520049301F048F9D6
:1003300001F09CFB1D49041C0C9801F090FB011C72
:10034000201C01F078FBEC21890501F071FB80464F
:1003500001F0B4FB84B20023002C0ED0200001F089
:1003600085FB011C404601F060FB8721C90501F0B7
:1003700076FB01F0A3FBC3B21B0224043A001C432A
:10038000310002AB2800029401F052FE0123B34079
:100390002A6813432B6006B080BCB846F0BDC04647
:1003A0000000E0AFFFFFFF9F00000E500000204163
:1003B0001023F0B5C646D0269846012700B5124C4A
:1003C0003606A04420CC280000F0E8FA3B00AB4001
:1003D000736273614445F5D11023D02698460127F6
:1003E0000A4D3606A84410CD200000F0D7FA3B0095
:1003F000A340002201212000B36200F0BBFA454572
:10040000F1D180BCB846F0BD8423001074230010E5
:10041000F0B5194E83B005001849300001F02CFDED
:10042000174F0400012130003E6001F009FD154B1B
:1004300001001860144B2200386800932B00FFF76E
:1004400049FF00224A21114B5A5402391A605A605E
:100450009A60DA601A615A619A61DA611A625A62C4
:100460009A62DA621A635A639A63DA631A645A64A4
:100470005A5203B0F0BDC046000020509423001033
:10048000100500202C06002000504349AC04002039
:10049000124B70B51A68124B12481C6801232100D8
:1004A000060010318B40A4004B36141905785168B2
:1004B0000B42FCD12561457851680B42FCD1256186
:1004C000857851680B42FCD1033025618642EDD11D
:1004D0006420002100F0BAFE70BDC0461005002067
:1004E0002C060020AC040020F8B503234E46DE465F
:1004F00057464546994648339B46E0B500262E4C64
:10050000A344482325009A46002700225346E2527E
:100510004A23E7549846B53326606660A660E660D5
:1005200026616661A661E66126626662A662E6628F
:1005300026636663A663E663266466646B70AB70CD
:100540002B716B71EB712B72AB72EB722F70EF70C2
:10055000AF716F726B73AB732F73FFF799FF0F352A
:10056000C82000F087FE5D45CFD101235B429C4649
:10057000E1444B46002BC4D14A4623606360A3602C
:10058000E36023616361A361E36123626362A36249
:10059000E36223636363A363E36323646364534697
:1005A000E2524346E754FFF773FFF0BCBB46B24646
:1005B000A946A046F8BDC046AC040020002348224E
:1005C00010B5644C3138A352002223606360A360ED
:1005D000E36023616361A361E36123626362A362F9
:1005E000E36223636363A363E36323646364C0B26E
:1005F0004A33E25413281ED8574B80001B589F469D
:10060000564801F0FFFB00234822A352002223603A
:100610006360A360E36023616361A361E3612362BC
:100620006362A362E36223636363A363E36323649C
:1006300063644A33E254FFF72BFF10BD484801F0D2
:10064000E1FBFF22FF2312041B026260A360226110
:100650006361E2612362A262E3626263A363226474
:100660006364FF224823E25200223E4902332160A4
:10067000E160A16161622163E163E254DBE73A4832
:1006800001F0C0FBFF231B04A36063612362E362EC
:10069000A36363644823334AFF2162602261E261FD
:1006A000A26262632264314A0902E25200220233EA
:1006B0002160E160A16161622163E163E254BAE714
:1006C0002B4801F09FFBFF22264B1202FF216260A4
:1006D000A36022616361E2612362A262E3626263FA
:1006E000A36322646364002248230904E2520233B4
:1006F000FF322160E160A16161622163E163E25444
:1007000099E71C4801F07EFBFFF7EEFE93E71A48DD
:1007100001F078FB00230121FF220020194202D0C2
:1007200062702070A27001330334192BF6D182E776
:10073000124801F067FB00230122FF20110019403D
:100740001A4202D160702070A17001330334192B5A
:10075000F4D170E7AC04002014230010A021001095
:10076000DC210010FF0000FFC421001000FFFFFF8C
:10077000B021001020220010F021001008220010EB
:10078000F0B5D6464F464646D024C0B5802701F086
:10079000EBFAFFF70DFE0720FFF73AFE664801F07F
:1007A00031FB664B240698467F0249E0802362684D
:1007B0005B051A4260D0802261685200114263D00A
:1007C00080216068890008426BD08026B60267618C
:1007D000A661606828425FD06068184269D060688E
:1007E00010426BD062680A4273D066618026F602BE
:1007F000A66162682A4267D062681A426FD080257B
:1008000063686D002B4273D062680B000A427BD094
:100810006661802680223603A66161685203114218
:100820006CD0802261685205114275D062682A42FC
:1008300078D062681A427AD06661642000F01AFDAE
:100840008025A76163686D032B42AFD1002380260A
:100850009A4699467602322000F00CFD63681D42EC
:10086000FCD04B4652469B004344985C666100288E
:10087000E3D0FFF7A3FEE0E71D00012380269A46A0
:10088000002376029946E6E7022380269A46002353
:10089000150099467602DEE700239A460133994611
:1008A000D9E7032380269A4600230D009946760255
:1008B000D1E71D0001239A469946CCE702239A46C8
:1008C000013B15009946C6E700239A460233994634
:1008D000C1E703239A46023B0D009946BBE701237B
:1008E000802680259A4601339946F6026D05B2E7C7
:1008F000022380269A469946F602ACE700239A46E0
:10090000033315009946A6E7032380269A46013B48
:100910000D009946F6029EE701239A460233150020
:10092000994698E702239A460133994693E71D00BA
:1009300003239A4699468EE7342200106423001060
:10094000094A83009A1810B5146840225440803236
:100950002240064CC000A44663441A60044B9C46E7
:100960006044416010BDC04604C0014004D0014055
:1009700000400140074B8000C3181B68C90092006B
:100980000A435A400C231340034A944660440360D0
:100990007047C04604C0014004D001400123D0226A
:1009A0008340120693629361094A83009A18116882
:1009B0004022514080320A400649C0008C466344C0
:1009C0001A60054B9C460523604443607047C0464F
:1009D00004C0014004D00140004001400FB400B504
:1009E000084883B001F00EFA049B002B07D005A93C
:1009F0001800019101F0B2F8034801F003FA012058
:100A000001F0C4F84822001058220010EFF31080C3
:100A100072B6034A1368002BFCD0BFF35F8F704798
:100A20002C0100D0BFF35F8F0022024B1A6080F3CD
:100A3000108870472C0100D070B5EFF3108C72B69F
:100A40000D4D2B68002BFCD0BFF35F8F0724CB0824
:100A5000C618C05C01230C40A3401C0004400342A4
:100A600007D118433070BFF35F8F2C608CF3108870
:100A700070BD1000FFF7B2FF2C0100D0F8B547465B
:100A8000CE46884680B5EFF3108C72B6214D2C68A7
:100A9000002CFCD0BFF35F8F9A422CD8D4080727D4
:100AA000055D061901241740BC402C421FD00721C8
:100AB0000127894609E0D408055D06194C4639002E
:100AC0001440A1400C00294211D001329342F2D2CD
:100AD00001204042BFF35F8F00220E4B1A608CF35F
:100AE000108800280FDBC0BCB946B046F8BD2543CE
:100AF00010003570EEE7BFF35F8F00232B608CF39F
:100B00001088012040424346002BECD00898FFF7A4
:100B100065FFC0462C0100D0044A1078431CDBB2AC
:100B2000172B00D9102313707047C046980100207E
:100B30000021044B044ABFF35F8F02C39342FAD1F2
:100B40007047C046000100D0800100D0054B064A26
:100B50001360064A136053609360D360136153615E
:100B6000936170478080808000E400E004E400E04E
:100B70001F2318401E3B8340002905D0C021044A92
:100B80004900535013607047802201498B50FAE7A7
:100B900000E100E070B50D00EFF3108672B60F4A69
:100BA0001368002BFCD0BFF35F8F0D4B10309B6898
:100BB00084001B590B4A934203D09D4201D000F0A0
:100BC000A7FD074B9B681D51BFF35F8FBFF35F8F7E
:100BD0000022024B1A6086F3108870BD240100D0F9
:100BE00000ED00E0CD010010024B9C4661448900FD
:100BF000016070474000003470B5114C114DAC429B
:100C00000FD2FF262368002B0CD0FFF785FF0100D1
:100C10002000FFF7E9FFA680BFF35F8F0834AC42E6
:100C2000F0D370BDFFF778FF01002000FFF7DCFF75
:100C30002671BFF35F8F0834AC42E3D3F1E7C046BF
:100C4000E0010020E80100200A4B1968EFF3108052
:100C500072B60A68002AFCD0BFF35F8F1B68BFF32F
:100C60005F8F00221A6080F3108840BF00200021AF
:100C70007047C04628060020F0B5DE4657464E466F
:100C80004546E0B583B0EFF3058203231340B54A30
:100C9000990052580091904601229A40B24B9346D7
:100CA0001A60B24B01932EE043469B881BB2002B87
:100CB00000DB99E043469B79002B00D0DDE0434602
:100CC00008241C5F002C00DA06E143465A696300E1
:100CD0001B19DB00D3189D68DC686B1C00D107E191
:100CE000A34B00999C4661449A6A0B69A81A9B1A07
:100CF000984200D20D619E4800F052FB8C4200DD0C
:100D0000EAE000D126E15B46994843634346082266
:100D10009B5E9946002BC7DB424652695B009246B8
:100D20004B44DB009A4453469E68DF6800F038FB72
:100D30008F42B9DC00D100E1002F00DAE1E0524639
:100D4000534654691B69019A934200D1D4E041464D
:100D500052460820085E528800042100104398473C
:100D600004000D0023002B4300D1CAE0002D00DB5E
:100D7000E7E030003900001BA94153469860D96074
:100D800000229A5E002A8FDB43465D6953009C185F
:100D9000E4002C19A768E4688C4200DD84E702D1E6
:100DA000874200D980E74646328108360DE08C4202
:100DB00000D1D3E01E000023F25E002A0ADB5300BC
:100DC0009C18E4002C19A768E4689B18DB00EB185A
:100DD0008C42ECDD53461A804B46338043469B8859
:100DE0001BB2002B00DA65E743461A69EFF3108166
:100DF00072B61368002BFCD0BFF35F8F43469E880A
:100E0000012342465B42938036B21369BFF35F8F82
:100E100000221A6081F31088002E00DA4AE7434668
:100E20005D69083342469C467700BF19FF00EF1901
:100E3000BB68604698460823D15E9246FC6800294C
:100E400007DA0EE0A2424FD018000023C15E00294D
:100E500006DB4B005B18DB00EB18DA68A242F1DD21
:100E6000524606800023FE5E3980002EDCDA904672
:100E700043469B79002B00D121E700234246937122
:100E8000434646460821595E08364B1C24D0474647
:100E90008946556902E006004B1C18D04B005B18D0
:100EA000DB00E8180A008C46E95E43881BB2002B81
:100EB000F1DA01235B42DC178360C4604A4503D04A
:100EC00031803B8903803A81E1464B1CE6D14C4698
:100ED000B846002C00DBF8E640BF03B0F0BCBB46D0
:100EE000B246A946A046F0BD9A684245ACD9B7E7DC
:100EF000631C00D0F4E6FEE6200023699847002832
:100F000025D1534642461B8813811269EFF31083A3
:100F100072B611680029FCD0BFF35F8F424651467C
:100F200052880A804246494651801269BFF35F8F5A
:100F30000021116083F31088B6E6864200D8FBE6F4
:100F4000B2E60B4800F02CFA0019694115E7656814
:100F5000246807E7854200D8D5E6BDE7874200D878
:100F600028E737E7140500203C700540790C001095
:100F70000040054070B52E4C2569002D04D00A2193
:100F80002C48FFF731FE70BD2B4E0321300000F0DE
:100F9000FDF9E660FFF7C0FD284B03229C46D023F5
:100FA00022701B061B6801216370254B6044A360FF
:100FB0000F23800020610220638063694942A18081
:100FC00019800231198647311D83585218315A52FF
:100FD00075325C3999521832013199521832013107
:100FE0009952183201319952083518329D52023106
:100FF00018329952183201319952183201319952EE
:101000001832013199521832013199521832013196
:1010100099520C4B0C49DC6001303562FFF7BAFD88
:1010200001210320FFF7A4FD084B1D60A7E7C04680
:101030009C010020280600200040054040000034AC
:10104000FFFF100014050020790C001038600540E7
:1010500070B501000469EFF3108C72B620680028A7
:10106000FCD0BFF35F8F02200D5E4C696800401911
:10107000C0002418002D37DB208848800869BFF3A2
:101080005F8F002606608CF31088E3606388049805
:10109000013320615B0405985B0CA26060611A1C3F
:1010A000002B1FD093B22804628018430A69EFF323
:1010B000108C72B61368002BFCD0BFF35F8F8B8847
:1010C00023808D800B69BFF35F8F00221A608CF341
:1010D00010880B7801329A40CB6808498C466344EB
:1010E0001A6070BD0122DDE70B69BFF35F8F00223C
:1010F0001A608CF3108801204042F2E73C20000087
:1011000010B543890A1493421ADD53009B184269B3
:10111000DB00D3180469EFF3108C72B62268002A42
:10112000FCD0BFF35F8F5A88090494B2090C8A423D
:1011300008D00369BFF35F8F00221A608CF3108818
:10114000002010BD8022120214435C80012302693A
:101150008371BFF35F8F002111608CF31088044905
:1011600002788C469340C268012062441360E8E72D
:101170003C200000F0B504000D0006267642F7176B
:10118000C64636196F4100B582B08F4214D811D0CF
:1011900000F00EF932003B00121A8B41002B17DCD5
:1011A000002B47D02000290000F00CF902B080BCD1
:1011B000B846F0BD8642EBD90022002316001F007E
:1011C00000F0F6F832003B00121A8B41002BE7DDED
:1011D00000F0EEF832003B00121A8B41002B0ADBC4
:1011E00000230193154B3200009315483B00FFF795
:1011F0002FFF0028D6DB00239C46B046114A124E32
:10120000736A9F4204D8B16A8845CBD99F42C9D13D
:101210001168EFF3108072B60B68002BFCD0BFF39F
:101220005F8F1368BFF35F8F6146196080F310888A
:1012300020BFE5E7002AB5D0CAE7C046490C001038
:101240009C010020280600200040054070B50400E5
:101250000D0000F0ADF88023001969411B0699428A
:1012600002D3012002494042FFF784FF70BDC0460F
:10127000FFFFFF7F70B5060000F09AF8FA22040025
:101280000D00002330000021920000F0B1FB80230C
:10129000001969411B06994202D3012002494042CC
:1012A000FFF768FF70BDC046FFFFFF7FF0B5CE4679
:1012B000474680B504000D0083B0EFF305878846EC
:1012C000002F3ED12E4EA1463378F06804339B00A8
:1012D000816A1B58601A5B1A98420ED320BF2949B5
:1012E00000204B6AAB4203D38A6A0130944231D862
:1012F00003B0C0BCB946B046F0BD00F059F82200BA
:101300002B00121A8B41002B2FDB1F4B2200009366
:1013100030002B000197FFF79BFE011E25DD194BC6
:101320005A6AAA421BD220BF3000FFF7E9FE154AD5
:101330000020536A4345DBD3926A01309145D7D9E7
:1013400008E0104900204B6AAB42D1D38A6A0130D1
:10135000A242CDD25B1B5A1E9341D8B2C8E79B6A0A
:101360009C42E1D9AA42DFD1DDE7064A0020536A58
:101370004345BDD3926A01209145B9D9EAE7C046F9
:101380009C01002000400540490C001010B5024AA5
:101390000248FFF751FB10BD5C22001070040020D2
:1013A0000300416A0A00986A596A8A42FAD1704772
:1013B000034B596A0A00986A596A9142FAD17047F8
:1013C00000400540064A536A9942FCD807D1044BB5
:1013D00002E05A6A914202D19A6A8242F9D3704776
:1013E00000400540F8B5DE464E4657464546E0B556
:1013F0008B4605000A991800160000F067FA0A9B50
:101400006C001F02324B64199C46A400644463685C
:1014100081469F4200D967602B1FDBB29846012BA3
:1014200030D9C02380229B01E31812011A60294B96
:10143000AD0059599A4600291BD17301E026226854
:1014400053401E40802342465B01E3181E60012A80
:1014500030D9802380229B01E31812011A60534681
:101460004A4667605A51F0BCBB46B246A946A04600
:10147000F8BD586900F02AFA013043001B18033BFD
:10148000FDD2DAE75B46012BCBD1C02303229B01BF
:10149000E3181A60023AA3681A42FCD07301E026EE
:1014A0002268AD0053401E4080230A4A5B019246E9
:1014B000E3181E605A462168514003220A401A6010
:1014C00001225B469A40A3681A42FCD0C1E7C0469D
:1014D0000080004078040020F0B546464F46D646CE
:1014E000C0B51F00344B44009C462418A40064443B
:1014F000636888461600FF2B02D880235B00636078
:10150000031FDBB29A46012B30D9C02380229B01F6
:10151000E31812011A60294B850059599946002990
:101520001BD17301E026226853401E40802352469F
:101530005B01E3181E60012A30D9802380229B01C1
:10154000E31812011A6080235B0063604B465F5111
:10155000E0BCBA46B146A846F0BD586900F0B6F9FD
:10156000013043001B18033BFDD2DAE74346012B51
:10157000CBD1C02303229B01E3181A60023AA3686F
:101580001A42FCD07301E0262268850053401E40B9
:1015900080230A4A5B019146E3181E604246216897
:1015A000514003220A401A60012342469340A26838
:1015B0001342FCD0C1E7C046008000407804002000
:1015C000014B8000C058704778040020F8B5040033
:1015D00021481E0017000D0000F078F901003800C6
:1015E00000F074F9069B36041B031E432368002B8E
:1015F00020DB1A4B1A49E3185A1E934180229201AC
:1016000094465B421B0B174A1B0363441360164A44
:1016100013601F000A689743FBD1144B2560E21842
:101620002123A06013602368002BFCDA0823E66006
:101630001360F8BD3F2322681340AB42D9D1A368A1
:101640001B051B0D8342D4D1EE22E368D202134066
:10165000B342CED1EDE7C046001BB7000040FDBF4E
:1016600008C0004000E0004000F0004004300000EE
:101670008023024A9B000B43D362704700800540E1
:10168000142310B50100188804331B88984710BD37
:10169000162310B50100188802331B88984710BD27
:1016A000F8B54746CE4680B50F1E19D0142399468B
:1016B000043304000025012698464B46188843460B
:1016C00021681B88984701C4431E98410135404258
:1016D0000640AF42F1D13000C0BCB946B046F8BDBB
:1016E0000126F8E7AA23064A1B0113602F230549A8
:1016F000D360054B19605368002BFCDA7047C04675
:101700000040024000B0FA00006002407047C0464E
:1017100010B50148FFF762F98022001070B5074D3F
:10172000074EB54209D20024013E761BB60808CD0B
:10173000984723000134B342F9D170BD60210010F5
:101740009C210010054B064A06491A60064A074BC1
:101750001A6010000B689843FBD1704700E000400E
:10176000BFCDFBFE08C00040FE7F3C0000F0004003
:10177000044BDB6C002B03D18022034BD2021A6096
:101780007047C046000011504C201150044A054BD0
:101790001A60054A1368DB018033FBD17047C046ED
:1017A000FFFFFF0100F0004008C000404022034B53
:1017B0009A675A671A67DA667047C04600F00140B8
:1017C00010B5FFF7B5F910BD70B5044D044CA9680C
:1017D000C022200000F0B4F9AC6070BD00ED00E064
:1017E00000000020002310B5294C82B0A367FFF74A
:1017F00079FF0122274B1A60636C012BFCD1032275
:10180000254B1A60224A936B012BFCD101330093C4
:101810000121224A22480433FFF7D8FE0523012183
:101820000093204A2048FFF7D1FE00220221042025
:101830001E4BFFF751FE0022012105201C4BFFF734
:101840004BFE0022002107201A4BFFF745FE002225
:1018500000210820174BFFF73FFE8023DB00009399
:10186000002200210920134BFFF7BCFD0022104B82
:1018700000210620FFF730FE0420FFF7A1FE0E49ED
:1018800000F024F801000020FFF7F2FE02B010BDC6
:10189000008000403CB0004030B00040002F68594C
:1018A00000800240008C864700C00240001BB70049
:1018B00040597307006CDC0240420F0001480421CC
:1018C000014B1847C0010020A1160010114A936F68
:1018D0009B0813D210665166002905D0FFE7FFE789
:1018E000FFE7516F106F704704B5002801D000204A
:1018F000C04300F025FC002104BDC046F0B5146EC5
:10190000556E576F166FFFF7E5FF146655665767FC
:101910001667F0BD000000D010B50148FFF75EF873
:101920008C220010132370B51D78012D19D014DD01
:101930001D48FFF7ADFE06001C48FFF7A9FE1C4C32
:1019400080223100200000F0FBF8022D06D019485B
:10195000FFF796FE184B186070BD154C174BA3642B
:10196000F5E7174B124C23606360A360E3602361CB
:101970006361A361E36123626362A362E362236341
:101980006363A363E36323646364A364E364236521
:101990006365A365E36523666366A366E366236701
:1019A0006367A367E367D9E7534400005346000029
:1019B000680300204C33000024050020C5190010E6
:1019C0001919001007B5604601880A0A0230DF2A9B
:1019D000FAD1C9B2820804D30288408800041043B7
:1019E00000E00068014A5050039007BD68030020E2
:1019F00051434343C9188C46110C83B24B4310B476
:101A0000040C614392B280B2504362431C041B0C2D
:101A1000001910BC59411304120CC0185141614403
:101A2000704700004840414048400E4B5B681847F3
:101A30000C4B1B6818470C4A936F9B0802D2094B4A
:101A4000DB681847F0B5146E556E576F166FFFF7C9
:101A5000F6FF054A1466556657671667F0BD014BD9
:101A60009B68184728050020000000D0491A00286C
:101A700008D1084670470000C10FC90700D5404291
:101A8000002817D0F44603B40B4B1B68984706BCDC
:101A900081409E384042803107D20B0607D0490072
:101AA000490AC0051043084360470130F8E7490A76
:101AB0008902F5E77047000024050020014B5B6AAE
:101AC000184700002805002010B50148FEF786FFE2
:101AD00044220010132310B510481C78FFF7D8FDDE
:101AE0000100012C0AD003DD80220D4800F028F807
:101AF0000C48FFF7C5FD0C4B186010BD084C542274
:101B0000200000F01DF82200084980322368002BD5
:101B100000D1216004349442F8D1E9E75346000033
:101B2000280500204C33000024050020C91A0010AD
:101B300001480421014B1847D0010020A1160010D4
:101B4000014B5B6818470000D001002010B5002849
:101B500000D110BD00F00AF9FBE7C04610B5094AF4
:101B60000300146884B0002C08D0012200910648BC
:101B7000524203A9A047012004B010BD00F042F971
:101B80000020F9E7A80400204D1B001000BEFDE76F
:101B900010B5FFF7FBFFC04670B5FFF7BFFD074D5F
:101BA000074EB54209D20024013E761BB60808CD87
:101BB000984723000134B342F9D170BD9C21001035
:101BC000A0210010030010B5080011001B68984701
:101BD00010BDC046F0B5C64600B5437D07000D00F8
:101BE0001600002B38D0002A2EDD00216A1E9046F8
:101BF0006A5C037D4C1C00200A2A0CD0A64216D039
:101C000043461B5D21000D3B5A4253416A5CDBB2E7
:101C10004C1C0A2AF2D1002BF0D1884217DB02219A
:101C200010483B689847A64207D02000E8E7864264
:101C300003DD311A3B6828189847AD19013D2B7810
:101C40000D3B5A4253413B7580BCB846F0BD091A62
:101C50003B6828189847E2E7036811002800984776
:101C6000F2E7C04604240010F0B5DE4657464E4663
:101C70004546E0B585B017001C0006000D00FFF7D3
:101C800097FB0023314A12184B41802109068B42F1
:101C900002D301222E4B52422E4908008A4600F000
:101CA00057FA01906B1C03D1300000F00FFA0500C9
:101CB000002C26D0284B9846284B1C68002C15D0A9
:101CC000002F21D1264F02E02469002C0ED023687A
:101CD000002BF9D03B68002B01D09C42F4D12000AE
:101CE0002A003100C0472469002CF0D1019B002B51
:101CF00028D1280005B0F0BCBB46B246A946A04694
:101D0000F0BD184B9846D7E7154B994602ABDF1D3F
:101D10000A239B4602E02469002CE7D02368002BAD
:101D2000F9D04B461B68002B01D0A342F3D12A0007
:101D300031002000C0475B460122390020003B7083
:101D4000C047E8E7504600F0F3F9D2E740420F0001
:101D5000FFFFFF7FE0010020D51B0010A004002042
:101D6000A4040020C51B001000207047F0B5CE462B
:101D7000474680B583B06B460600DD1D2870FFF72F
:101D800017FB00231A4A12184B41802109068B4287
:101D900002D30122174B524217490800884600F02F
:101DA000D7F9164B81461C68002C14D0144F02E062
:101DB0002469002C0FD02368002BF9D03B68002B3E
:101DC00001D09C42F4D1200001222900FFF702FF3C
:101DD0002469002CEFD14B46002B05D1300003B015
:101DE000C0BCB946B046F0BD404600F0A1F9F5E7E9
:101DF00040420F00FFFFFF7FE0010020A004002011
:101E0000A404002070B5040000F060F90123010073
:101E1000050001222000FFF727FF084B1C68002C5B
:101E200006D06368002B05D098472469002CF8D1B0
:101E3000280070BD2469002CF3D1F9E7A00400202C
:101E400010B50A4B0A4AC418240DA40082B00092AF
:101E500008482200E31CFEF711FE844202DC001B4E
:101E600002B010BD01204042FAE7C0460000E0AFDA
:101E7000F022001074040020F0B55746DE464E46AE
:101E800045468846E0B583B006000524FEF7BEFD52
:101E9000434684461C571879364B374AF3181B0DB6
:101EA0009B009246D75801228240013A002C42DB27
:101EB0002021091A8C423BDC1100A14025000F4271
:101EC00036D14146096889464146897900294DD174
:101ED000AA4093463A423FD1802189010022884698
:101EE000002816D06146A44634004E4699460300A9
:101EF00001915100705A404500D2401951191231D8
:101F00008900013208519342F3D8019B64469C46F4
:101F10004B465A4617435246D7506046FEF782FD5D
:101F2000200003B0F0BCBB46B246A946A046F0BDB7
:101F300001246442F1E72024241A0DD41100A140A9
:101F400025008B46394205D109E01100A14025004A
:101F50000F42B6D0013CF8D209246442DDE7424684
:101F60001268914642469279002AB5D01424644200
:101F7000D3E7C0460000E0AF68040020F0B54E464D
:101F80004546DE465746E0B583B089460CA98446EF
:101F90000D781F2A45D84946490088464944C9005A
:101FA000461837003400DC373868CC348346206864
:101FB000310001901C4880248246A40251440C60E8
:101FC00069424D411E216D428D4318498A46554450
:101FD000052B0CD9A0201F214005D83654010443FD
:101FE0000532053B3C600A403560052BF6D85201AE
:101FF0009B06134342464A44D20062441000DC323E
:1020000013600300D8331D605B461360019BCC3026
:102010000360002003B0F0BCBB46B246A946A04610
:10202000F0BD05204042F5E7CC3000009FE0000005
:10203000F0B501258D400468AC430460002B2ED020
:102040004D006C18E400041926001F68C83637607C
:102050009F68043677605F68DB68DC343760236034
:102060006B18184DDB00AC468025C41864442D065F
:1020700025602560144C0D1D8C40846001242600D1
:10208000AE40802508318C401F21AD014519C01894
:102090000A40D8302E602C6002600020F0BD4D0058
:1020A0006C18E400041926008027C8367F023760C8
:1020B000C0273F03B760F82704367F02DC3437605F
:1020C0002360CDE7D01000000101010110B58307A6
:1020D0000AD00300032102E001330B4205D01A7835
:1020E000002AF9D1181A10BD030019680C4A0D4CCA
:1020F0008A188A4322420FD15968094A04338A1840
:102100008A43224208D15968054A04338A188A430F
:102110002242F1D000E001331A78002AFBD1E1E736
:10212000FFFEFEFE80808080F8B5C0460000000003
:1021300001B40248844601BC604700BF5D01002035
:1021400001B40248844601BC604700BF85010020FD
:1021500001B40248844601BC604700BFC1000020B2
:102160004517001071170010BD180010311B00102A
:1021700025190010D51A0010E51700108D17001052
:10218000AD170010C1170010F90B0010C91700108F
:10219000750F00100D1700104D0B0010B10200104C
:1021A0006465736C69676172204C4544730000007C
:1021B0006C69676172204C45447320617A7569735C
:1021C000000000006C69676172204C454473207602
:1021D00065726D656C686F73000000006C69676103
:1021E00072204C454473207665726465730000006C
:1021F0004C454473206C696CC3A17320656D20C38A
:10220000AD6D7061726573004C45447320616D6102
:1022100072656C6F7320656D20706172657300006C
:10222000616E696D61C3A7C3A36F206C696CC3A1A4
:102230007300000073697374656D6120696E696372
:102240006961646F000000000A2A2A2A2050414E6A
:102250004943202A2A2A0A000A00000048617264C1
:102260007761726520616C61726D20256420616CFC
:10227000726561647920636C61696D65640000005A
:102280004861726420617373657274006D69737361
:10229000696E6720646F75626C652066756E637425
:1022A000696F6E0052656C6561736500626F6F7473
:1022B000325F77323571303830000000302E310017
:1022C000322E312E300000007069636F5F7700009E
:1022D000416E696D6174696F6E2D426974446F67F8
:1022E0004C6162004A616E20323520323032350056
:1022F0004E6F2050494F207374617465206D616387
:1023000068696E65732061726520617661696C61D0
:10231000626C65000E070010300700100207001005
:10232000360600103606001036060010360600107D
:10233000360600103606001036060010360600106D
:10234000360600103606001036060010360600105D
:102350003606001000060010C00600107E060010B1
:102360003C06001031323341343536423738394378
:102370002A302344140000001C0000000800000064
:102380000900000010000000110000001200000011
:10239000130000009C23001004FF000021622311A1
:1023A000001442A406005250D3F07542A42200103B
:1023B00006005250E182887FAC2200100600525085
:1023C0003ABCA911BC22001006005250ABB36053B6
:1023D000C022001006005250BBFF3CB6C8220010BD
:1023E00006005250861C0302D022001006005250F4
:1023F0005422A29DE422001005005250DE65F468CC
:08240000502500100D0A000038
:10240800A4230010B0230010BC230010C823001020
:10241800D4230010E0230010EC230010F823001050
:10242800F0B5C646150000B504001E000268EFF3BB
:10243800108172B61368002BFCD0BFF35F8F0423A2
:10244800E356002B2DDB2268BFF35F8F002010605E
:1024580081F31088D0221206127852B290469A421E
:1024680003D1002080BCB846F0BD00270BE02368EC
:10247800BFF35F8F1F6081F310882800310000F0E0
:1024880033F80028EDD12268EFF3108172B6136893
:10249800002BFCD0BFF35F8F23797F2BE7D943460E
:1024A80002E0D0231B061B6823712368BFF35F8FEC
:1024B80000221A6081F310880120D3E70268EFF345
:1024C800108172B61368002BFCD0BFF35F8FFF2317
:1024D80003710368BFF35F8F00221A6081F31088CD
:1024E80040BF70477047C04601B40248844601BCEB
:1024F800604700BFAD12001010000000000000008F
:1025080000000000000000000000000000000000C3
:10251800E8010020000000000000000000000000AA
:10252800503300004C330000543300005233000095
:102538004D5300004D430000533400004334000065
:0825480000000000000000008B
:04000005100001E9FD
:00000001FF
